{"abi":[{"inputs":[{"internalType":"address","name":"_addr","type":"address"}],"stateMutability":"nonpayable","type":"constructor","name":"constructor"},{"inputs":[{"internalType":"uint256","name":"_eth","type":"uint256"}],"name":"ETHtoUSD","outputs":[{"internalType":"uint256","name":"","type":"uint256"}],"stateMutability":"view","type":"function"},{"inputs":[{"internalType":"address","name":"","type":"address"}],"name":"addrtoamnt","outputs":[{"internalType":"uint256","name":"","type":"uint256"}],"stateMutability":"view","type":"function"},{"inputs":[],"name":"fund","outputs":[],"stateMutability":"payable","type":"function"},{"inputs":[{"internalType":"uint256","name":"","type":"uint256"}],"name":"funders","outputs":[{"internalType":"address","name":"","type":"address"}],"stateMutability":"view","type":"function"},{"inputs":[],"name":"getPrice","outputs":[{"internalType":"uint256","name":"","type":"uint256"}],"stateMutability":"view","type":"function"},{"inputs":[],"name":"withdraw","outputs":[],"stateMutability":"payable","type":"function"}],"bytecode":"608060405234801561001057600080fd5b5060405161069e38038061069e83398101604081905261002f91610062565b60008054336001600160a01b031991821617909155600380549091166001600160a01b0392909216919091179055610090565b600060208284031215610073578081fd5b81516001600160a01b0381168114610089578182fd5b9392505050565b6105ff8061009f6000396000f3fe6080604052600436106100555760003560e01c80633ccfd60b1461005a5780635893f6261461006457806398d5fdca1461009a578063b60d4288146100af578063dc0d3dff146100b7578063f028cad5146100e4575b600080fd5b610062610104565b005b34801561007057600080fd5b5061008461007f36600461044d565b6101ea565b6040516100919190610550565b60405180910390f35b3480156100a657600080fd5b506100846101fc565b6100626102a1565b3480156100c357600080fd5b506100d76100d236600461047b565b61035c565b60405161009191906104e2565b3480156100f057600080fd5b506100846100ff36600461047b565b610386565b6000546001600160a01b031633146101375760405162461bcd60e51b815260040161012e9061052d565b60405180910390fd5b60405133904780156108fc02916000818181858888f19350505050158015610163573d6000803e3d6000fd5b5060005b6002548110156101c95760006002828154811061019457634e487b7160e01b600052603260045260246000fd5b60009182526020808320909101546001600160a01b0316825260019052604081205550806101c181610598565b915050610167565b5060408051600081526020810191829052516101e7916002916103b9565b50565b60016020526000908152604090205481565b600080600360009054906101000a90046001600160a01b03166001600160a01b031663feaf968c6040518163ffffffff1660e01b815260040160a06040518083038186803b15801561024d57600080fd5b505afa158015610261573d6000803e3d6000fd5b505050506040513d601f19601f820116820180604052508101906102859190610493565b5050509150506305f5e1008161029b9190610559565b91505090565b6032806102ad34610386565b10156102cb5760405162461bcd60e51b815260040161012e906104f6565b600080546040516001600160a01b03909116913480156108fc02929091818181858888f19350505050158015610305573d6000803e3d6000fd5b50506002805460018181019092557f405787fa12a823e0f2b7631cc41b3ba8828b3321ca811111fa75cd3aa3bb5ace0180546001600160a01b03191633908117909155600090815260209190915260409020349055565b6002818154811061036c57600080fd5b6000918252602090912001546001600160a01b0316905081565b600080826103926101fc565b61039c9190610579565b90506103b0670de0b6b3a764000082610559565b9150505b919050565b82805482825590600052602060002090810192821561040e579160200282015b8281111561040e57825182546001600160a01b0319166001600160a01b039091161782556020909201916001909101906103d9565b5061041a92915061041e565b5090565b5b8082111561041a576000815560010161041f565b805169ffffffffffffffffffff811681146103b457600080fd5b60006020828403121561045e578081fd5b81356001600160a01b0381168114610474578182fd5b9392505050565b60006020828403121561048c578081fd5b5035919050565b600080600080600060a086880312156104aa578081fd5b6104b386610433565b94506020860151935060408601519250606086015191506104d660808701610433565b90509295509295909350565b6001600160a01b0391909116815260200190565b6020808252601a908201527f596f75206e65656420746f207370656e64206d6f726520657468000000000000604082015260600190565b6020808252600990820152682737ba1037bbb732b960b91b604082015260600190565b90815260200190565b60008261057457634e487b7160e01b81526012600452602481fd5b500490565b6000816000190483118215151615610593576105936105b3565b500290565b60006000198214156105ac576105ac6105b3565b5060010190565b634e487b7160e01b600052601160045260246000fdfea2646970667358221220c28dfbfb59668e6468f35c7211a0d9d931a6c9bf6c5ab025e4d5ebbe07806a1664736f6c63430008000033","bytecodeSha1":"2bc7e9bf4de4460dd3a31faac9b4ab1f1be2d3d6","compiler":{"evm_version":"istanbul","optimizer":{"enabled":true,"runs":200},"version":"0.8.0+commit.c7dfd78e"},"contractName":"FundMe","language":"Solidity","natspec":{"kind":"dev","methods":{},"version":1},"opcodes":"PUSH1 0x80 PUSH1 0x40 MSTORE PUSH1 0x4 CALLDATASIZE LT PUSH2 0x55 JUMPI PUSH1 0x0 CALLDATALOAD PUSH1 0xE0 SHR DUP1 PUSH4 0x3CCFD60B EQ PUSH2 0x5A JUMPI DUP1 PUSH4 0x5893F626 EQ PUSH2 0x64 JUMPI DUP1 PUSH4 0x98D5FDCA EQ PUSH2 0x9A JUMPI DUP1 PUSH4 0xB60D4288 EQ PUSH2 0xAF JUMPI DUP1 PUSH4 0xDC0D3DFF EQ PUSH2 0xB7 JUMPI DUP1 PUSH4 0xF028CAD5 EQ PUSH2 0xE4 JUMPI JUMPDEST PUSH1 0x0 DUP1 REVERT JUMPDEST PUSH2 0x62 PUSH2 0x104 JUMP JUMPDEST STOP JUMPDEST CALLVALUE DUP1 ISZERO PUSH2 0x70 JUMPI PUSH1 0x0 DUP1 REVERT JUMPDEST POP PUSH2 0x84 PUSH2 0x7F CALLDATASIZE PUSH1 0x4 PUSH2 0x44D JUMP JUMPDEST PUSH2 0x1EA JUMP JUMPDEST PUSH1 0x40 MLOAD PUSH2 0x91 SWAP2 SWAP1 PUSH2 0x550 JUMP JUMPDEST PUSH1 0x40 MLOAD DUP1 SWAP2 SUB SWAP1 RETURN JUMPDEST CALLVALUE DUP1 ISZERO PUSH2 0xA6 JUMPI PUSH1 0x0 DUP1 REVERT JUMPDEST POP PUSH2 0x84 PUSH2 0x1FC JUMP JUMPDEST PUSH2 0x62 PUSH2 0x2A1 JUMP JUMPDEST CALLVALUE DUP1 ISZERO PUSH2 0xC3 JUMPI PUSH1 0x0 DUP1 REVERT JUMPDEST POP PUSH2 0xD7 PUSH2 0xD2 CALLDATASIZE PUSH1 0x4 PUSH2 0x47B JUMP JUMPDEST PUSH2 0x35C JUMP JUMPDEST PUSH1 0x40 MLOAD PUSH2 0x91 SWAP2 SWAP1 PUSH2 0x4E2 JUMP JUMPDEST CALLVALUE DUP1 ISZERO PUSH2 0xF0 JUMPI PUSH1 0x0 DUP1 REVERT JUMPDEST POP PUSH2 0x84 PUSH2 0xFF CALLDATASIZE PUSH1 0x4 PUSH2 0x47B JUMP JUMPDEST PUSH2 0x386 JUMP JUMPDEST PUSH1 0x0 SLOAD PUSH1 0x1 PUSH1 0x1 PUSH1 0xA0 SHL SUB AND CALLER EQ PUSH2 0x137 JUMPI PUSH1 0x40 MLOAD PUSH3 0x461BCD PUSH1 0xE5 SHL DUP2 MSTORE PUSH1 0x4 ADD PUSH2 0x12E SWAP1 PUSH2 0x52D JUMP JUMPDEST PUSH1 0x40 MLOAD DUP1 SWAP2 SUB SWAP1 REVERT JUMPDEST PUSH1 0x40 MLOAD CALLER SWAP1 SELFBALANCE DUP1 ISZERO PUSH2 0x8FC MUL SWAP2 PUSH1 0x0 DUP2 DUP2 DUP2 DUP6 DUP9 DUP9 CALL SWAP4 POP POP POP POP ISZERO DUP1 ISZERO PUSH2 0x163 JUMPI RETURNDATASIZE PUSH1 0x0 DUP1 RETURNDATACOPY RETURNDATASIZE PUSH1 0x0 REVERT JUMPDEST POP PUSH1 0x0 JUMPDEST PUSH1 0x2 SLOAD DUP2 LT ISZERO PUSH2 0x1C9 JUMPI PUSH1 0x0 PUSH1 0x2 DUP3 DUP2 SLOAD DUP2 LT PUSH2 0x194 JUMPI PUSH4 0x4E487B71 PUSH1 0xE0 SHL PUSH1 0x0 MSTORE PUSH1 0x32 PUSH1 0x4 MSTORE PUSH1 0x24 PUSH1 0x0 REVERT JUMPDEST PUSH1 0x0 SWAP2 DUP3 MSTORE PUSH1 0x20 DUP1 DUP4 KECCAK256 SWAP1 SWAP2 ADD SLOAD PUSH1 0x1 PUSH1 0x1 PUSH1 0xA0 SHL SUB AND DUP3 MSTORE PUSH1 0x1 SWAP1 MSTORE PUSH1 0x40 DUP2 KECCAK256 SSTORE POP DUP1 PUSH2 0x1C1 DUP2 PUSH2 0x598 JUMP JUMPDEST SWAP2 POP POP PUSH2 0x167 JUMP JUMPDEST POP PUSH1 0x40 DUP1 MLOAD PUSH1 0x0 DUP2 MSTORE PUSH1 0x20 DUP2 ADD SWAP2 DUP3 SWAP1 MSTORE MLOAD PUSH2 0x1E7 SWAP2 PUSH1 0x2 SWAP2 PUSH2 0x3B9 JUMP JUMPDEST POP JUMP JUMPDEST PUSH1 0x1 PUSH1 0x20 MSTORE PUSH1 0x0 SWAP1 DUP2 MSTORE PUSH1 0x40 SWAP1 KECCAK256 SLOAD DUP2 JUMP JUMPDEST PUSH1 0x0 DUP1 PUSH1 0x3 PUSH1 0x0 SWAP1 SLOAD SWAP1 PUSH2 0x100 EXP SWAP1 DIV PUSH1 0x1 PUSH1 0x1 PUSH1 0xA0 SHL SUB AND PUSH1 0x1 PUSH1 0x1 PUSH1 0xA0 SHL SUB AND PUSH4 0xFEAF968C PUSH1 0x40 MLOAD DUP2 PUSH4 0xFFFFFFFF AND PUSH1 0xE0 SHL DUP2 MSTORE PUSH1 0x4 ADD PUSH1 0xA0 PUSH1 0x40 MLOAD DUP1 DUP4 SUB DUP2 DUP7 DUP1 EXTCODESIZE ISZERO DUP1 ISZERO PUSH2 0x24D JUMPI PUSH1 0x0 DUP1 REVERT JUMPDEST POP GAS STATICCALL ISZERO DUP1 ISZERO PUSH2 0x261 JUMPI RETURNDATASIZE PUSH1 0x0 DUP1 RETURNDATACOPY RETURNDATASIZE PUSH1 0x0 REVERT JUMPDEST POP POP POP POP PUSH1 0x40 MLOAD RETURNDATASIZE PUSH1 0x1F NOT PUSH1 0x1F DUP3 ADD AND DUP3 ADD DUP1 PUSH1 0x40 MSTORE POP DUP2 ADD SWAP1 PUSH2 0x285 SWAP2 SWAP1 PUSH2 0x493 JUMP JUMPDEST POP POP POP SWAP2 POP POP PUSH4 0x5F5E100 DUP2 PUSH2 0x29B SWAP2 SWAP1 PUSH2 0x559 JUMP JUMPDEST SWAP2 POP POP SWAP1 JUMP JUMPDEST PUSH1 0x32 DUP1 PUSH2 0x2AD CALLVALUE PUSH2 0x386 JUMP JUMPDEST LT ISZERO PUSH2 0x2CB JUMPI PUSH1 0x40 MLOAD PUSH3 0x461BCD PUSH1 0xE5 SHL DUP2 MSTORE PUSH1 0x4 ADD PUSH2 0x12E SWAP1 PUSH2 0x4F6 JUMP JUMPDEST PUSH1 0x0 DUP1 SLOAD PUSH1 0x40 MLOAD PUSH1 0x1 PUSH1 0x1 PUSH1 0xA0 SHL SUB SWAP1 SWAP2 AND SWAP2 CALLVALUE DUP1 ISZERO PUSH2 0x8FC MUL SWAP3 SWAP1 SWAP2 DUP2 DUP2 DUP2 DUP6 DUP9 DUP9 CALL SWAP4 POP POP POP POP ISZERO DUP1 ISZERO PUSH2 0x305 JUMPI RETURNDATASIZE PUSH1 0x0 DUP1 RETURNDATACOPY RETURNDATASIZE PUSH1 0x0 REVERT JUMPDEST POP POP PUSH1 0x2 DUP1 SLOAD PUSH1 0x1 DUP2 DUP2 ADD SWAP1 SWAP3 SSTORE PUSH32 0x405787FA12A823E0F2B7631CC41B3BA8828B3321CA811111FA75CD3AA3BB5ACE ADD DUP1 SLOAD PUSH1 0x1 PUSH1 0x1 PUSH1 0xA0 SHL SUB NOT AND CALLER SWAP1 DUP2 OR SWAP1 SWAP2 SSTORE PUSH1 0x0 SWAP1 DUP2 MSTORE PUSH1 0x20 SWAP2 SWAP1 SWAP2 MSTORE PUSH1 0x40 SWAP1 KECCAK256 CALLVALUE SWAP1 SSTORE JUMP JUMPDEST PUSH1 0x2 DUP2 DUP2 SLOAD DUP2 LT PUSH2 0x36C JUMPI PUSH1 0x0 DUP1 REVERT JUMPDEST PUSH1 0x0 SWAP2 DUP3 MSTORE PUSH1 0x20 SWAP1 SWAP2 KECCAK256 ADD SLOAD PUSH1 0x1 PUSH1 0x1 PUSH1 0xA0 SHL SUB AND SWAP1 POP DUP2 JUMP JUMPDEST PUSH1 0x0 DUP1 DUP3 PUSH2 0x392 PUSH2 0x1FC JUMP JUMPDEST PUSH2 0x39C SWAP2 SWAP1 PUSH2 0x579 JUMP JUMPDEST SWAP1 POP PUSH2 0x3B0 PUSH8 0xDE0B6B3A7640000 DUP3 PUSH2 0x559 JUMP JUMPDEST SWAP2 POP POP JUMPDEST SWAP2 SWAP1 POP JUMP JUMPDEST DUP3 DUP1 SLOAD DUP3 DUP3 SSTORE SWAP1 PUSH1 0x0 MSTORE PUSH1 0x20 PUSH1 0x0 KECCAK256 SWAP1 DUP2 ADD SWAP3 DUP3 ISZERO PUSH2 0x40E JUMPI SWAP2 PUSH1 0x20 MUL DUP3 ADD JUMPDEST DUP3 DUP2 GT ISZERO PUSH2 0x40E JUMPI DUP3 MLOAD DUP3 SLOAD PUSH1 0x1 PUSH1 0x1 PUSH1 0xA0 SHL SUB NOT AND PUSH1 0x1 PUSH1 0x1 PUSH1 0xA0 SHL SUB SWAP1 SWAP2 AND OR DUP3 SSTORE PUSH1 0x20 SWAP1 SWAP3 ADD SWAP2 PUSH1 0x1 SWAP1 SWAP2 ADD SWAP1 PUSH2 0x3D9 JUMP JUMPDEST POP PUSH2 0x41A SWAP3 SWAP2 POP PUSH2 0x41E JUMP JUMPDEST POP SWAP1 JUMP JUMPDEST JUMPDEST DUP1 DUP3 GT ISZERO PUSH2 0x41A JUMPI PUSH1 0x0 DUP2 SSTORE PUSH1 0x1 ADD PUSH2 0x41F JUMP JUMPDEST DUP1 MLOAD PUSH10 0xFFFFFFFFFFFFFFFFFFFF DUP2 AND DUP2 EQ PUSH2 0x3B4 JUMPI PUSH1 0x0 DUP1 REVERT JUMPDEST PUSH1 0x0 PUSH1 0x20 DUP3 DUP5 SUB SLT ISZERO PUSH2 0x45E JUMPI DUP1 DUP2 REVERT JUMPDEST DUP2 CALLDATALOAD PUSH1 0x1 PUSH1 0x1 PUSH1 0xA0 SHL SUB DUP2 AND DUP2 EQ PUSH2 0x474 JUMPI DUP2 DUP3 REVERT JUMPDEST SWAP4 SWAP3 POP POP POP JUMP JUMPDEST PUSH1 0x0 PUSH1 0x20 DUP3 DUP5 SUB SLT ISZERO PUSH2 0x48C JUMPI DUP1 DUP2 REVERT JUMPDEST POP CALLDATALOAD SWAP2 SWAP1 POP JUMP JUMPDEST PUSH1 0x0 DUP1 PUSH1 0x0 DUP1 PUSH1 0x0 PUSH1 0xA0 DUP7 DUP9 SUB SLT ISZERO PUSH2 0x4AA JUMPI DUP1 DUP2 REVERT JUMPDEST PUSH2 0x4B3 DUP7 PUSH2 0x433 JUMP JUMPDEST SWAP5 POP PUSH1 0x20 DUP7 ADD MLOAD SWAP4 POP PUSH1 0x40 DUP7 ADD MLOAD SWAP3 POP PUSH1 0x60 DUP7 ADD MLOAD SWAP2 POP PUSH2 0x4D6 PUSH1 0x80 DUP8 ADD PUSH2 0x433 JUMP JUMPDEST SWAP1 POP SWAP3 SWAP6 POP SWAP3 SWAP6 SWAP1 SWAP4 POP JUMP JUMPDEST PUSH1 0x1 PUSH1 0x1 PUSH1 0xA0 SHL SUB SWAP2 SWAP1 SWAP2 AND DUP2 MSTORE PUSH1 0x20 ADD SWAP1 JUMP JUMPDEST PUSH1 0x20 DUP1 DUP3 MSTORE PUSH1 0x1A SWAP1 DUP3 ADD MSTORE PUSH32 0x596F75206E65656420746F207370656E64206D6F726520657468000000000000 PUSH1 0x40 DUP3 ADD MSTORE PUSH1 0x60 ADD SWAP1 JUMP JUMPDEST PUSH1 0x20 DUP1 DUP3 MSTORE PUSH1 0x9 SWAP1 DUP3 ADD MSTORE PUSH9 0x2737BA1037BBB732B9 PUSH1 0xB9 SHL PUSH1 0x40 DUP3 ADD MSTORE PUSH1 0x60 ADD SWAP1 JUMP JUMPDEST SWAP1 DUP2 MSTORE PUSH1 0x20 ADD SWAP1 JUMP JUMPDEST PUSH1 0x0 DUP3 PUSH2 0x574 JUMPI PUSH4 0x4E487B71 PUSH1 0xE0 SHL DUP2 MSTORE PUSH1 0x12 PUSH1 0x4 MSTORE PUSH1 0x24 DUP2 REVERT JUMPDEST POP DIV SWAP1 JUMP JUMPDEST PUSH1 0x0 DUP2 PUSH1 0x0 NOT DIV DUP4 GT DUP3 ISZERO ISZERO AND ISZERO PUSH2 0x593 JUMPI PUSH2 0x593 PUSH2 0x5B3 JUMP JUMPDEST POP MUL SWAP1 JUMP JUMPDEST PUSH1 0x0 PUSH1 0x0 NOT DUP3 EQ ISZERO PUSH2 0x5AC JUMPI PUSH2 0x5AC PUSH2 0x5B3 JUMP JUMPDEST POP PUSH1 0x1 ADD SWAP1 JUMP JUMPDEST PUSH4 0x4E487B71 PUSH1 0xE0 SHL PUSH1 0x0 MSTORE PUSH1 0x11 PUSH1 0x4 MSTORE PUSH1 0x24 PUSH1 0x0 REVERT INVALID LOG2 PUSH5 0x6970667358 0x22 SLT KECCAK256 0xC2 DUP14 0xFB 0xFB MSIZE PUSH7 0x8E6468F35C7211 LOG0 0xD9 0xD9 BALANCE 0xA6 0xC9 0xBF PUSH13 0x5AB025E4D5EBBE07806A166473 PUSH16 0x6C634300080000330000000000000000 ","sha1":"efb0ef7808999d288d1683a078013d8f4547261d","source":"//SPDX-License-Identifier: MIT\npragma solidity >=0.6.6 <0.9.0;\nimport \"@chainlink/contracts/src/v0.6/interfaces/AggregatorV3Interface.sol\";\n// 0x8A753747A1Fa494EC906cE90E9f37563A8AF630e 0xD4a33860578De61DBAbDc8BFdb98FD742fA7028e\n\ncontract FundMe{    \n    address payable owner;\n    mapping(address => uint256) public addrtoamnt;\n    address[] public funders;\n    AggregatorV3Interface internal priceFeed;\n\n    constructor(address _addr){\n        owner = payable(msg.sender);\n        priceFeed = AggregatorV3Interface(_addr);\n    }  \n\n    function getPrice() public view returns(uint256){      \n        (,int256 answer,,,) = priceFeed.latestRoundData();\n        return uint256(answer) / 10 ** 8;\n    }\n\n    function ETHtoUSD(uint256 _eth) public view returns(uint256){\n        uint256 convertedeth = getPrice() * _eth;\n        return convertedeth / 1000000000000000000;\n    }\n\n    function fund() payable public {\n        uint256 fee = 50;\n        require(ETHtoUSD(msg.value) >= fee, \"You need to spend more eth\");\n        owner.transfer(msg.value);\n        funders.push(msg.sender);\n        addrtoamnt[msg.sender] = msg.value;\n    }\n\n     modifier onlyOwner {\n    \trequire(msg.sender == owner, \"Not owner\");        \n        _;\n    }\n\n    function withdraw() payable public onlyOwner{\n       payable(msg.sender).transfer(address(this).balance);\n       for(uint i = 0; i < funders.length; i++){\n           address funder = funders[i];\n           addrtoamnt[funder] = 0;\n       }\n        funders = new address[](0);        \n    }\n}\n\n\n","sourcePath":"contracts/FundMe.sol","type":"contract","deployment":{"address":"0x5b1869D9A4C187F2EAa108f3062412ecf0526b24","chainid":"1337","blockHeight":2}}